:1000000004308A00462C0000FF00030E8301A1008B
:100010000A08A0008A010408A2007708A300780853
:10002000A4007908A5007A08A600831383128B1E0A
:100030001B280B192C28220884002308F700240809
:10004000F8002508F9002608FA0020088A00210E89
:100050008300FF0E7F0E09008A110A1237280A104A
:100060008A100A11820728340C3401340634ED302A
:100070008100AA0A2A080A3C031D4C28AA01A90AE1
:100080002908643C031D4C28A901A70A27083C3C09
:10009000031D4C28A701A80A0B118A110A121B285C
:1000A000532A4F28D720D421480030183A18301D41
:1000B000301800000C28C12AD322441025183232EF
:1000C000BA123019641D2518323200008C2175399E
:1000D000721025183232BA123019641D25183232C6
:1000E0000000C33A7239A0123019641D251832324B
:1000F000BA12301964008C29D42750284522A01246
:100100003019641D25183232BA12301964000C29D6
:10011000C529452A00015D308400831300080319B6
:100120009E280630F800F701F70B9428F80B932867
:100130007B30F700F70B9A28800B91280800640E9B
:10014000F039F7000F300805770488000000081424
:100150000230F700F70BAA28AD28000008100800AD
:100160000808F700080E0F39F80008008316081079
:1001700088100811831288100F3083160805F03894
:10018000880083120815000008140000B0207808C9
:10019000E400081000000814CD28CE280000B0208C
:1001A0007808E30008100F308316080588008312D2
:1001B000640EF700F030F70577086304F80078085C
:1001C000E300E31BBC28611C881061188814000040
:1001D000081100000810620EE3000F30E305630809
:1001E000E4009F2062080F39E300E4009F2008002C
:1001F0005E0BFB28FE284030DF00FF28DF010130C6
:100200005D02DF075F088038E000E1016008E2007E
:10021000B62008005C08073A031918290B3A03199D
:100220001D29063A03192529023A03192B293029D9
:100230000130DD00DE00F8203529E1010130E20067
:10024000B6200230DD008B2035290130DD00023080
:10025000DE00F8203529E1011030E200B620352912
:100260000130E1005C08E200B62008000B08D20073
:100270008B13831603178C170C14000000008312D5
:100280000C087F3903197D290313D30003170D08C8
:100290000313D40003170F080313D5005308DC0021
:1002A0000A21540803178D000313550803178F0004
:1002B00083168C170C140000000083120C0D0E0D19
:1002C0007F3903197D290313D30003170D08031386
:1002D000D40003170F080313D5005308DC000A21CC
:1002E000540803178D000313550803178F008D0A58
:1002F00003198F0A0313392903170313D21B8B1712
:1003000008000F30831608058800081088100811AF
:1003100083128810081108100F30DD008B20013087
:10032000D2005208033C031C9D290330E4009F20A7
:100330000530DD008B20D20A91290230E4009F2095
:100340000530DD008B20D2015208033C031CB1298B
:1003500052082F20D300E1015308E200B620D20A50
:10036000A4290130DD00DE00F820503003178D0095
:1003700000308F00031336210130DD000230DE0033
:10038000F820553003178D0000308F0003133621FD
:1003900008000C30DC000A210130AB008316010894
:1003A000C03907388100ED30831281008B16C030D0
:1003B0008B048A110A127A2C0B08D3008B13831634
:1003C00003178C170C140000000003180E2A831268
:1003D0000C087F390313D40003170D080313D5004D
:1003E00003170F080313D6005408DC000A21550830
:1003F00003178D000313560803178F0083168C17FD
:100400000C140000000083120313D20B082A0B2ADD
:10041000831603170E2A2D2A8316031783120C0D39
:100420000E0D7F390313D40003170D080313D500F5
:1004300003170F080313D6005408DC000A215508DF
:1004400003178D000313560803178F008D0A031935
:100450008F0A03100313D20BDF29D31B8B1708005D
:100460005D08F8015C020318382A5C08F700442A8A
:10047000F7010830DE00DC0DF70D5D087702031888
:10048000F700F80DDE0B3B2A08002030571E3030F5
:10049000D8005608F700D61F552AF709F70A77083B
:1004A000D6002D30D800D71757145608DC0064301A
:1004B000DD0030227708D60030307807D9005608A2
:1004C000DC000A30DD00302230307707DB003030CE
:1004D0007807DA005808F700303059020319742AF7
:1004E000D714D71B5715882A5719882A5808D900B6
:1004F000D7187F2A30305A020319822A5714D71B83
:10050000D714882A031D5714031D882A5908DA00B6
:1005100057198F2AD718922A5718952A982A5808B7
:10052000DC000A215908DC000A215A08DC000A21F3
:100530005B08DC000A210800AB010130AD00DD00E2
:10054000DE00F8205A3003178D0000308F000310B2
:1005500008300313D200DC212808D6000130D70070
:1005600045223A30DC000A212708D6000130D700A6
:1005700045223A30DC000A212908D6000130D70094
:1005800045228B120B138B138B1BC32A8A110A1261
:100590007E2C0130AB00AD01D001DD00DE00F82083
:1005A000663003178D0000308F00031006300313F0
:1005B000D200DC212808D6000130D70045223A308D
:1005C000DC000A212708D6000130D70045223A3046
:1005D000DC000A212908D6000130D7004522831605
:1005E0000108C03907388100ED30831281008B1675
:1005F000C0308B048A110A12822C30082902D200E2
:100600002F082702D3002E082802D4003008290220
:1006100003180D2B6430D207D3032F0827020318C9
:10062000142B3C30D307D4034F08093C031C1C2B6C
:100630004F08AC00CF0A1F2BAC010130CF00453072
:100640002C0784008313520880003B302C07840061
:1006500083135308800031302C078400831354081F
:1006600080002908B0002708AF002808AE008A11D2
:100670000A128D2C0130DD00DE00F8207B300317DC
:100680008D0000308F00031009300313D200DC21ED
:100690002808D6000130D70045223A30DC000A2174
:1006A0002708D6000130D70045223A30DC000A2165
:1006B0002908D6000130D70045228A110A12BD2C24
:1006C000873003178D0000308F0003133621083068
:1006D000D200FA30DD008B20D20B692BA701A801D4
:1006E000A901AA01AB01AC01AD01AE01AF01B0019E
:1006F000CF01D0010C30DC000A2181218A110A12BD
:10070000C52C0130DD00DE00F820713003178D00AC
:1007100000308F00031005300313D200DC212808BD
:10072000D6000130D70045223A30DC000A212708E4
:10073000D6000130D70045223A30DC000A212908D2
:10074000D6000130D70045228A110A12C82CCF08E2
:100750000319432C4F082C020318432C0130DD00F1
:100760000230DE00F82001302C07D20031302C0797
:10077000840083130008D3003B302C0784008313CC
:100780000008D40045302C07840083130008D500EE
:100790004C30DC000A214130DC000A215030DC0002
:1007A0000A215208D6001830D7002030571E3030AA
:1007B000D8005608F700D61FE52BF709F70A770887
:1007C000D6002D30D800D71757145608DC006430F7
:1007D000DD0030227708D60030307807D90056087F
:1007E000DC000A30DD00302230307707DB003030AB
:1007F0007807DA005808F700303059020319042C42
:10080000D714D71B5715182C5808D9002030D800FA
:1008100030305A020319102C5714D71BD714182C38
:10082000031D5714031D182C5908DA002030D90075
:1008300057191F2CD718222C5718252C282C58084C
:10084000DC000A215908DC000A215A08DC000A21D0
:100850005B08DC000A212030DC000A215308D600A6
:100860000130D70045223A30DC000A215408D60076
:100870000130D70045223A30DC000A215508D60065
:100880000130D70045228A110A12C92CA701A801FC
:10089000A901AA01AB01AC01AD01AE01AF01B001EC
:1008A000CF01D001FF30D10083161F149F141F15F4
:1008B0009F1183131F308305831281210330831618
:1008C00085008600803087008312D10083160514CE
:1008D0008312051C822C3230DD008B208316051418
:1008E000831205186E2CAB08031D7B2CAD08031D6D
:1008F0007B2CC929822C2B0B7F2C9C2A822C2D0B24
:10090000822CC92A831685148312851C8D2C83168C
:10091000851483128518872CFD2A8316861483126A
:10092000861C9C2C8316861483128618922C013008
:100930004F022C02031CAC0A831606148312061CF9
:10094000A92C8316061483120618A12CAC08031DCB
:10095000AC03D1175108831687008312871FC52C5B
:10096000D1175108831687008312871BB02CD0083B
:10097000031DC02C2D0BC02C3A2B0130D000C52CF0
:10098000500BC52C2D0BC52C602B2B0BC82C812B91
:06099000A72B662C63009A
:02400E00323F3F
:00000001FF
;PIC16F877
;CRC=65C8  CREATED="02-Sep-25 22:46"
